:020000040800F2
:10000000600600206D0100089B03000893030008B0
:100010009703000827020008E90700080000000015
:100020000000000000000000000000009906000829
:100030002B02000800000000750600088507000874
:100040008701000887010008870100088701000870
:100050008701000887010008870100088701000860
:100060008701000887010008870100088701000850
:100070008701000887010008870100088701000840
:100080008701000887010008870100088701000830
:100090008701000887010008870100088701000820
:1000A0008701000887010008870100088701000810
:1000B0008701000887010008870100088701000800
:1000C00087010008870100088701000887010008F0
:1000D00087010008870100088701000887010008E0
:1000E00087010008870100088701000800F002F876
:1000F00000F02CF80AA090E8000C82448344AAF196
:100100000107DA4501D100F021F8AFF2090EBAE893
:100110000F0013F0010F18BFFB1A43F0010318473B
:100120000C0D00001C0D00000023002400250026FB
:10013000103A28BF78C1FBD8520728BF30C148BF4A
:100140000B6070471FB51FBD10B510BD00F031F832
:100150001146FFF7F7FF00F049FB00F04FF803B43A
:10016000FFF7F2FF03BC00F057F800000948804792
:1001700009480047FEE7FEE7FEE7FEE7FEE7FEE789
:10018000FEE7FEE7FEE7FEE704480549054A064BA1
:100190007047000089070008ED000008600000209B
:1001A0006006002060020020600200207047704757
:1001B0007047754600F02CF8AE4605006946534678
:1001C00020F00700854618B020B5FFF7DDFFBDE839
:1001D00020404FF000064FF000074FF000084FF0AE
:1001E000000B21F00701AC46ACE8C009ACE8C0093F
:1001F000ACE8C009ACE8C0098D46704710B50446AC
:10020000AFF300802046BDE81040FFF7A8BF000014
:10021000004870470000002001491820ABBEFEE7EF
:1002200026000200704700BFFEE7704700B5034696
:1002300003E04FF47A7000F005F8181EA3F10103F3
:10024000F7D100BD00EBC001C9004FF0E0225161C1
:10025000002191610521116100BF4FF0E021096982
:1002600001F480310029F8D004214FF0E02211611F
:1002700070472DE9F04102460025002600200023AA
:100280000024002791F803C00CF00F0591F803C07B
:100290000CF0100CBCF1000F03D091F802C04CEA36
:1002A000050591F800C0BCF1000F31D014680020A2
:1002B0002BE04FF0010C0CFA00F3B1F800C00CEA8F
:1002C00003069E4220D183004FF00F0C0CFA03F777
:1002D000BC4305FA03FC4CEA040491F803C0BCF1EA
:1002E000280F06D14FF0010C0CFA00FCC2F814C024
:1002F0000AE091F803C0BCF1480F05D14FF0010CA2
:100300000CFA00FCC2F810C0401C0828D1D31460BD
:10031000B1F800C0BCF1FF0F34DD546800202EE0BE
:1003200000F1080C4FF0010808FA0CF3B1F800C016
:100330000CEA03069E4221D183004FF00F0C0CFA09
:1003400003F7BC4305FA03FC4CEA040491F803C02C
:10035000BCF1280F05D100F1080C08FA0CF8C2F81E
:10036000148091F803C0BCF1480F07D100F1080CCC
:100370004FF0010808FA0CF8C2F81080401C082859
:10038000CED35460BDE8F0810AB1016100E0416163
:10039000704700BFFEE700BFFEE7704770B500245E
:1003A0000EE00021204600F0E6F8002504E00020E1
:1003B00000F050F9681CC5B2802DF8DB601CC4B297
:1003C000082CEEDB70BD000008B50121082000F00C
:1003D00053F914208DF8030003208DF802004FF428
:1003E0008070ADF8000069460A48FFF742FF4FF4FD
:1003F0000070ADF8000069460648FFF73AFF012299
:1004000011020448FFF7C0FF012251020148FFF723
:10041000BBFF08BD000C014070B50546002415E087
:100420008020204100EA05024FF400710E48FFF7DA
:10043000ABFF012211020C48FFF7A6FF00224FF488
:1004400080710948FFF7A0FF601CC4B2082CE7DBED
:10045000012211020448FFF797FF00224FF4807138
:100460000148FFF791FF70BD000C014010B501225B
:1004700051020A48FFF788FF012211020748FFF7DF
:1004800083FF00224FF400710448FFF77DFF002234
:100490004FF480710148FFF777FF10BD000C014059
:1004A00010B500224FF400710648FFF76DFF0122DE
:1004B00011020448FFF768FF012251020148FFF7CB
:1004C00063FF10BD000C014070B5002406E000255C
:1004D00000E06D1CB5F57A7FFBD3641CB4F57A7F20
:1004E000F5D3FFF771FFAE2000F0A4F8D52000F09F
:1004F000A1F8802000F09EF8A82000F09BF83F2093
:1005000000F098F8D32000F095F8002000F092F861
:10051000402000F08FF8A12000F08CF8C82000F0F7
:1005200089F8DA2000F086F8122000F083F88120A4
:1005300000F080F8CF2000F07DF8D92000F07AF8A4
:10054000F12000F077F8DB2000F074F8302000F0A4
:1005500071F8A42000F06EF8A62000F06BF88D2052
:1005600000F068F8142000F065F8AF2000F062F8A1
:10057000FFF714FF70BD70B505460C4645F0B0009E
:1005800000F058F8102141EA141000F053F804F07C
:100590000F0000F04FF870BD2DE9F04105460E4602
:1005A0001746721ED206110E6A1E5206100EFFF773
:1005B000E2FF002409E0A7F12001134A02EB011138
:1005C000085D00F047F8601CC4B2082CF3DB721E13
:1005D000D206110E6A1E012303EB4202D0B2FFF7CE
:1005E000CAFF00240BE0A7F12001074A02EB011229
:1005F00004F10801505C00F02DF8601CC4B2082C16
:10060000F1DBBDE8F08100003C0800082DE9F04175
:1006100007460E461546002407E02A5D3019C1B290
:100620003846FFF7B9FF601CC4B2285D0028F4D13A
:10063000BDE8F08110B50446FFF718FF7820FFF7FA
:10064000EBFE0020FFF7E8FE2046FFF7E5FEFFF790
:1006500027FF10BD10B50446FFF708FF7820FFF70D
:10066000DBFE4020FFF7D8FE2046FFF7D5FEFFF760
:1006700017FF10BD7047000029B1064A9269024376
:10068000044B9A6104E0034A92698243014B9A61E8
:100690007047000000100240704710B500F002F8EB
:1006A00010BD00000CB50020019000903348006898
:1006B00040F480303149086000BF3048006800F4E1
:1006C000003000900198401C0190009818B90198E2
:1006D000B0F5A06FF1D12948006800F4003010B1E6
:1006E0000120009001E0002000900098012843D1F3
:1006F0002348006840F0100021490860084600685F
:1007000020F0030008600846006840F0020008601E
:100710001A484068194948600846406848600846D9
:10072000406840F4806048600846406820F47C10CF
:1007300048600846406840F4E81048600846006891
:1007400040F08070086000BF0C48006800F0007046
:100750000028F9D00948406820F0030007494860A4
:100760000846406840F00200486000BF0348406807
:1007700000F00C000828F9D10CBD00000010024068
:10078000002002407047000010B51348006840F098
:1007900001001149086008464068104908400E49A8
:1007A0004860084600680E4908400B490860084642
:1007B000006820F4802008600846406820F4FE00AD
:1007C00048604FF41F008860FFF767FF4FF000603C
:1007D0000449086010BD0000001002400000FFF84E
:1007E000FFFFF6FE08ED00E000BFFEE713E0FFF7B5
:1007F0006BFEFFF7D3FD0DE04FF47A70FFF716FDA7
:1008000005A201210846FFF701FF08A201210220ED
:10081000FFF7FCFEF0E7EAE7536F757468776573DE
:100820007420556E697665720000000073697479F2
:10083000202D20524F424F434F4E00000000000039
:10084000000000000000000000000000000000F8B0
:1008500000000000000000333000000000100C0613
:10086000100C0600000000000000000040C07840AE
:10087000C0784000043F04043F040400007088FC7A
:1008800008300000001820FF211E0000F008F000D2
:10089000E018000000211C031E211E0000F0088843
:1008A000700000001E2123241927211010160E00AD
:1008B000000000000000000000000000000000E058
:1008C000180402000000000718204000000204186D
:1008D000E00000000040201807000000404080F0C9
:1008E000804040000202010F01020200000000F0FF
:1008F000000000000101011F0101010000000000D3
:100900000000000080B07000000000000000000047
:1009100000000000000101010101010100000000D0
:100920000000000000303000000000000000000067
:1009300080601804006018060100000000E0100844
:100940000810E000000F102020100F00001010F819
:10095000000000000020203F202000000070080858
:1009600008887000003028242221300000300888D8
:10097000884830000018202020110E000000C02000
:1009800010F8000000070424243F240000F8088821
:10099000880808000019212020110E0000E01088AE
:1009A00088180000000F112020110E0000380808E0
:1009B000C83808000000003F0000000000708808F0
:1009C00008887000001C222121221C0000E0100871
:1009D0000810E0000000312222110F00000000C0CA
:1009E000C000000000000030300000000000008067
:1009F0000000000000008060000000000000804057
:100A0000201008000001020408102000404040406F
:100A100040404000040404040404040000081020C2
:100A20004080000000201008040201000070480807
:100A30000808F0000000003036010000C030C8286F
:100A4000E810E0000718272423140B000000C0382A
:100A5000E0000000203C23020227382008F88888A4
:100A600088700000203F202020110E00C0300808B0
:100A700008083800071820202010080008F8080887
:100A80000810E000203F202020100F0008F8888880
:100A9000E8081000203F20202320180008F888884C
:100AA000E8081000203F200003000000C0300808C4
:100AB0000838000007182020221E020008F808004D
:100AC0000008F808203F210101213F20000808F814
:100AD000080800000020203F202000000000080837
:100AE000F8080800C08080807F00000008F888C0F7
:100AF00028180800203F20012638200008F80800A8
:100B000000000000203F20202020300008F8F800DE
:100B1000F8F80800203F003F003F200008F830C0F0
:100B20000008F808203F200007183F00E0100808E0
:100B30000810E0000F10202020100F0008F808080F
:100B40000808F000203F210101010000E010080822
:100B50000810E0000F18242438504F0008F8888847
:100B600088887000203F2000030C30200070880827
:100B7000080838000038202121221C00180808F835
:100B8000080818000000203F2000000008F80800B6
:100B90000008F808001F202020201F000878880087
:100BA00000C83808000007380E010000F80800F8F7
:100BB0000008F800033C0700073C030008186880A1
:100BC0008068180820302C03032C30200838C80017
:100BD000C83808000000203F200000001008080866
:100BE000C83808002038262120201800000000FE08
:100BF000020202000000007F40404000000C30C0B4
:100C000000000000000000010638C00000020202DF
:100C1000FE000000004040407F0000000000040291
:100C200002020400000000000000000000000000BC
:100C300000000000808080808080808000020204AC
:100C400000000000000000000000000000008080A4
:100C5000808000000019242222223F2008F8008012
:100C600080000000003F112020110E0000000080D5
:100C700080800000000E1120202011000000008064
:100C80008088F800000E112020103F200000808096
:100C900080800000001F222222221300008080F0AA
:100CA000888888180020203F2020000000008080D5
:100CB00080808000006B94949493600008F800801A
:100CC00080800000203F210000203F200080989875
:100CD000000000000020203F2020000000000080D5
:100CE0009898000000C08080807F000008F8000015
:100CF00080808000203F24022D302000000808F86A
:100D0000000000000020203F202000008080808024
:100D100080808000203F20003F20003F80800080B6
:100D200080800000203F210000203F2000008080C4
:100D300080800000001F202020201F008080008075
:100D40008000000080FFA12020110E000000008024
:100D500080808000000E112020A0FF808080800015
:100D60008080800020203F21200001000000808042
:100D7000808080000033242424241900008080E037
:100D8000808000000000001F202000008080000004
:100D900000808000001F202020103F2080808000E5
:100DA0000080808000010E300806010080800080F5
:100DB000008080800F300C030C300F00008080001A
:100DC000808080000020312E0E3120008080800045
:100DD0000080808080818E701806010000808080F5
:100DE000808080000021302C222130000000000093
:100DF000807C020200000000003F40400000000034
:100E0000FF00000000000000FF0000000002027C64
:100E1000800000000040403F00000000000601018B
:100E20000202040400000000000000003C0E000864
:0C0E3000000000206006000028010008FF
:04000005080000ED02
:00000001FF
