:020000040800F2
:10000000400900200D020008F31C00081317000827
:10001000F11C0008130300089D23000800000000E5
:10002000000000000000000000000000392100086E
:10003000E904000800000000372100083B21000807
:1000400027020008270200082702000827020008EC
:1000500027020008270200082702000827020008DC
:1000600027020008270200082702000827020008CC
:1000700027020008270200082702000827020008BC
:1000800027020008270200082702000827020008AC
:10009000270200082702000827020008270200089C
:1000A000270200082702000827020008270200088C
:1000B000A1210008270200082702000827020008E3
:1000C000270200082702000827020008270200086C
:1000D000270200082702000827020008270200085C
:1000E000270200082702000827020008270200084C
:1000F000270200082702000827020008270200083C
:10010000270200082702000827020008270200082B
:10011000270200082702000827020008270200081B
:10012000270200082702000827020008270200080B
:1001300000F002F800F05AF80AA090E8000C82449F
:100140008344AAF10107DA4501D100F04FF8AFF27C
:10015000090EBAE80F0013F0010F18BFFB1A43F0A5
:1001600001031847083A0000283A00000A444FF0FB
:10017000000C10F8013B13F0070408BF10F8014B06
:100180001D1108BF10F8015B641E05D010F8016B4B
:10019000641E01F8016BF9D113F0080F1EBF10F8AF
:1001A000014BAD1C0C1B09D16D1E58BF01F801CBD2
:1001B000FAD505E014F8016B01F8016B6D1EF9D555
:1001C0009142D6D37047000000230024002500266A
:1001D000103A28BF78C1FBD8520728BF30C148BFAA
:1001E0000B6070471FB51FBD10B510BD00F058F86B
:1001F0001146FFF7F7FF02F06BF900F076F803B451
:10020000FFF7F2FF03BC00F07DF8000009488047CB
:1002100009480047FEE7FEE7FEE7FEE7FEE7FEE7E8
:10022000FEE7FEE7FEE7FEE704480549054A064B00
:10023000704700009D2100083101000840030020A4
:100240004009002040050020400500204FF000023A
:1002500000B5134694469646203922BFA0E80C50BC
:10026000A0E80C50B1F12001BFF4F7AF090728BF97
:10027000A0E80C5048BF0CC05DF804EB890028BF13
:1002800040F8042B08BF704748BF20F8022B11F03C
:10029000804F18BF00F8012B7047704770477047B8
:1002A000754600F02BF8AE4605006946534620F02F
:1002B0000700854618B020B5FFF7B6FFBDE820401F
:1002C0004FF000064FF000074FF000084FF0000B12
:1002D00021F00701AC46ACE8C009ACE8C009ACE8C5
:1002E000C009ACE8C0098D46704710B50446AFF3AD
:1002F00000802046BDE81040FFF781BF00487047EE
:10030000DC02002001491820ABBEFEE726000200F7
:100310007047FEE710B500F057F8BDE810403220F6
:1003200000F0E6B810B5282002F01AF802210448BF
:1003300000F0ECF908B1002010BD012010BD000054
:10034000000C01401FB50222084B012120B1002002
:100350000092CDE9010104E00320CDE90021CDE9BF
:1003600002106946184600F0D5F81FBD000C014088
:1003700010B50C4C0221204600F0C8F90028F9D035
:10038000282001F0EDFF0221204600F0BFF90028EF
:1003900006D00221204600F0B9F90028F9D1012049
:1003A00010BD0000000C014070B500242546600619
:1003B000040EFFF7DDFF08B144F001046D1CEDB23F
:1003C000082DF4D3204670BD7FB500200290039025
:1003D00000F076F8FFF7A6FF002867D0354C022121
:1003E000204600F093F90028F9D00221204600F0C1
:1003F0008DF90028F9D100240DF10805FFF7D4FF8D
:100400002855641CE4B2052CF8D39DF808009DF82B
:1004100009109DF80B2008449DF80A101144084467
:100420009DF80C1088423FD1022305221946002076
:1004300001F012FD022320A21946202001F09CFDAC
:100440001024022300949DF80A201946282001F068
:100450005DFD0123072202213B2001F0FDFC032367
:100460000B220621002001F0F7FC022312A2062134
:10047000302001F081FD9DF80A0001F0F3FF0246F3
:100480000220CDE9000403230621372001F0E0FD1E
:1004900002230AA20621642001F06EFD9DF80A00E5
:1004A00001F0E0FF04B070BD0020FBE74FF080409A
:1004B000F8E70000000C01403A000000636D000006
:1004C00010B50020FFF73EFF00220221054800F092
:1004D00022F9142000F00CF8BDE810400120FFF7CD
:1004E00031BF0000000C0140704772B6FEE700000B
:1004F00070B5044600F014F90546601C02D00448AB
:100500000078044400F00CF9401BA042FAD370BDFF
:10051000000000202DE9F84FDFF8C891002409F110
:10052000040A0AF1040B23460F270BF1040ED1E055
:100530000125A54006EA0502AA4276D1DFF8A8C146
:100540004E68A6EB0C0866452BD00DDC032E34D08C
:1005500005DC36B3012E19D0022E2FD11BE0112E4F
:1005600016D0122E2AD119E0B8F5881F19D006DC52
:10057000B8F5803F15D0B8F5801F1FD111E0B8F550
:10058000001F0ED0B8F5041F18D10AE0CB6815E0A3
:10059000CB681B1D12E0CB6808330FE0CB680C332F
:1005A0000CE08B682BB1012B4FF0080303D04561A1
:1005B00004E0042302E0056100E00023FF2A01D8E3
:1005C000064601E000F104064FEA840501D9A5F1D1
:1005D0002005D6F8008007FA05FC28EA0C0803FA83
:1005E00005F548EA0508C6F800804D68ED0070D5AD
:1005F0003E4DAE6946F00106AE61AD6924F00306DA
:1006000005F0010500953A4D06EB050CDCF80850A5
:10061000A607360F07FA06F825EA0805DFF8D480A2
:10062000404503D14FF0000825E052E0DFF8C880D4
:10063000404502D14FF001081DE0DFF8C080404581
:1006400002D14FF0020816E0DFF8B480404502D135
:100650004FF003080FE0DFF8AC80404502D14FF0C7
:10066000040808E0DFF8A080404502D14FF00508FB
:1006700001E04FF0060808FA06F848EA0508CCF849
:1006800008804D68D9F80060ED034D4601D516434A
:1006900000E096432E604D68DAF80060AD035546E1
:1006A00001D5164300E096432E604D68DBF80060EC
:1006B000ED025D4601D5164300E096432E604D687D
:1006C000DEF80060AD02754601D5164300E09643A2
:1006D0002E60641C0A681646E2407FF429AFBDE82C
:1006E000F88F0000000401400000111000100240CB
:1006F0000000014000080140000C014000100140D2
:100700000014014000180140001C014080680840AE
:1007100000D0012070470AB1016170470904FBE76E
:1007200001488068704700000000002070B5040098
:1007300025D094F83D00002520B984F83C5020468F
:1007400000F050F9242084F83D002068016821F071
:10075000010101602068016841F4004101602068E6
:10076000016821F40041016000F098FA4D4A616887
:10077000914201D84C4900E04C49884201D2012005
:1007800070BD4B492368B0FBF1F15E6826F03F066F
:100790000E435E606368934206D94FF496735943E3
:1007A0004FF47A73B1FBF3F12368491C1E6A26F0FB
:1007B0003F06314319626168914210D84900401EDA
:1007C000B0FBF1F2521CC2F30B02042A01D2042046
:1007D00022E0B0FBF1F0401CC0F30B001CE0A2686B
:1007E000F2B301EBC10303EB0116431EB3FBF6F3B7
:1007F0005B1C43F480431B0549D092B301EBC1025B
:1008000002EB0111401EB0FBF1F0401CC0F30B00E5
:1008100040F4804040F400402168CA694CF6FF7300
:100820009A431043C861D4E9071001432068026865
:1008300022F0C00211430160D4E9030101432068A2
:10084000826848F2FF339A4311438160D4E905017D
:1008500008432168CA6822F0FF021043C86001E023
:100860000EE016E02068016841F001010160256496
:10087000202084F83D00256384F83E50002070BDA0
:1008800001EB4106431EB3FBF6F35B1CB3E701200B
:10089000C2E701EB4101401EB0FBF1F0401CC0F388
:1008A0000B00B7E7A086010080841E0000093D0010
:1008B00040420F002DE9FF4F83B09A46DDE91197C2
:1008C00093460446DDF84080FFF72AFF054694F87A
:1008D0003D0020287FD11923012240492046009560
:1008E00001F090F8002876D194F83C00012872D0ED
:1008F000012084F83C0020680168C90703D1016821
:1009000041F0010101602068016821F4006101608B
:10091000212084F83D00402084F83E000026266413
:10092000C4F82480A4F82A90608D20852C48E062C9
:10093000CDE9007553465A462046049900F0E8FF79
:1009400070B930E02A463946204601F0DAF858B14D
:10095000206C042804D12068016841F40071016012
:10096000012007B0BDE8F08F606A21680078086157
:10097000606A401C6062218D491E89B22185628DAA
:10098000521E628522685369DB435B070BD469B151
:1009900000781061606A401C6062208D401E2085D6
:1009A000608D401E6085208D0028CBD12A463946B7
:1009B000204601F001F80028CAD154F83D0B016827
:1009C00041F400710160202004F81E09E677667783
:1009D0000020C6E7FFE70220C3E700000200100086
:1009E0000000FFFF10B586B0002100910191029137
:1009F000039100680F4988421AD10F4CA06940F05A
:100A00000800A061A069694600F008000490C020B9
:100A1000009012200190032003900848FFF77AFD10
:100A2000E06940F40010E061E06900F40010049017
:100A300006B010BD0054004000100240000C014000
:100A400002488168027811448160704700000020EC
:100A5000074810B5016841F010010160032000F063
:100A600075F80F2000F006F800F024F8002010BD03
:100A70000020024070B50D4D04464FF47A7128787D
:100A8000B1FBF0F00A490968B1FBF0F000F0DCFAC4
:100A900048B9102C07D200222146501E00F036F82B
:100AA00000206C6070BD012070BD000000000020BF
:100AB0000C0000200C4808B5816941F001018161FA
:100AC000816901F001010091C16941F08051C1616A
:100AD000C06900F0805000900448416821F0E06156
:100AE00041F00071416008BD00100240000001406B
:100AF000002809DB00F01F0201219140400980001D
:100B000000F1E020C0F8001170470000F0B40E4B77
:100B10001B680C46C3F30223C3F10705042D00D95B
:100B20000425191D072901D2002300E0DB1E012640
:100B300006FA05F1491E214099409E40761E164056
:100B40003143F0BC01F050BC0CED00E0064900F070
:100B5000070208684FF6FF03184040EA0220034AE4
:100B600010430860704700000CED00E00000FA053B
:100B70002DE9F0470F46050061D0434E306800F084
:100B80000700B84209D2306820F0070038433060CF
:100B9000306800F00700B84251D128683B4C81070B
:100BA00012D5400703D5606840F4E06060602878A3
:100BB000000703D5606840F4605060606068A96811
:100BC00020F0F000084360602878C00728D06868EB
:100BD000012810D02168022810D0890700292EDAB8
:100BE000616821F0030101436160FFF799FD8046D0
:100BF00041F288390DE021688903EFE78901EDE7CB
:100C0000FFF78EFDA0EB0801494502D90320BDE89E
:100C1000F0876068696800F00C00B0EB810FEFD1DD
:100C2000306800F00700B8420BD9306820F00700A8
:100C300038433060306800F00700B84201D001202E
:100C4000E5E72878400705D56068E96820F4E060AA
:100C5000084360602878000706D56068296920F499
:100C6000605040EAC100606000F028F86168084AFE
:100C7000C1F30311515CC84006490860064800688A
:100C8000FFF7F8FE0020C2E70020024000100240FB
:100C90003A3300080C0000200400002004480549F5
:100CA00000684968044AC1F30221515CC84070479A
:100CB0000C000020001002404A33000812A185B049
:100CC0000FC98DE80F0014A0144A00680490516801
:100CD000134801F00C03042B10D0082B0ED1C1F3E4
:100CE0008343C9031DF803000AD5516804AAC1F360
:100CF0004041515C0A4A5043B0FBF1F005B07047E7
:100D000008494843FAE700000203040506070809FA
:100D10000A0B0C0D0E0F1010010200000010024013
:100D200000127A0000093D002DE9F84F040070D050
:100D30002078C04DC00749D06868C0F38100012801
:100D400007D06868C0F38100022809D16868C00331
:100D500006D52868800339D560680028E7D035E0DB
:100D60006068B0F5803F0BD010B1B0F5A02F11D066
:100D7000286820F480302860286820F4802002E071
:100D8000286840F480302860606890B1FFF7C8FCA4
:100D900006460AE0286840F480202860F0E700BF9B
:100DA000FFF7BEFC801B642873D828688003F7D542
:100DB0000CE0FFF7B5FC064605E000BFFFF7B0FC0E
:100DC000801B6428F0D828688003F7D420789A4ED6
:100DD00080074FF001094FF0000839D5686810F01E
:100DE0000C0F07D06868C0F38100022809D1686839
:100DF000C00306D42868800714D52069012808D1CB
:100E000010E02069B0B1C6F80090FFF789FC0746F2
:100E100005E00AE1FFF784FCC01B0228C4D828685B
:100E20008007F7D52868616920F0F80040EAC10022
:100E300028600DE0C6F80080FFF772FC074604E06A
:100E4000FFF76EFCC01B022823D828688007F7D460
:100E5000207800072CD57948A169D9B1C0F8009055
:100E6000FFF75EFC074604E0FFF75AFCC01B0228B0
:100E70000FD8686A8007F7D571484FF4FA510068B7
:100E8000B0FBF1F0009000BF0098411E0091FAD233
:100E90000EE080E0C0F80080FFF742FC074604E067
:100EA000FFF73EFCC01B022875D8686A8007F7D49C
:100EB0002078400760D5E8690027C00008D4E869B9
:100EC00040F08050E861E869012700F08050009010
:100ED0005C480168C90513D40168834641F48071F8
:100EE0000160FFF71DFC824606E000BFFFF718FC1B
:100EF000A0EB0A0064284ED8DBF80000C005F5D549
:100F0000E06801280AD008B1052813D0286A20F02B
:100F100001002862286A20F0040002E0286A40F0FC
:100F200001002862E06841F2883B98B1FFF7F8FBC6
:100F300082460BE0286A40F004002862EEE700BF1A
:100F4000FFF7EEFBA0EB0A0159455AD8286A800743
:100F5000F6D50CE0FFF7E4FB824605E0FFF7E0FB87
:100F6000A0EB0A0159454CD8286A8007F6D41FB176
:100F7000E86920F08050E861E06988B36968C1F3EE
:100F80008101022944D00228C6F8608004D0FFF70E
:100F9000C7FB044638E034E0FFF7C2FB074604E035
:100FA000FFF7BEFBC01B02282BD828688001F7D4AE
:100FB000206AB0F5803F05D16868A16820F4003050
:100FC00008436860D4E908010843696821F4741192
:100FD00008436860C6F86090FFF7A2FB044606E08D
:100FE00025E000BFFFF79CFB001B022809D82868FA
:100FF0008001F7D51BE000BFFFF792FB001B022822
:1010000002D90320BDE8F88F28688001F4D40EE0EF
:101010000128F7D06868226A00F48031914204D137
:10102000616A00F47010884201D00120EAE70020D4
:10103000E8E7000000100240000042428004424203
:101040000C0000200070004010B5401EB0F1807F01
:1010500001D3012010BD4FF0E02460610F21601723
:1010600001F0C2F90020A06107202061002010BD1E
:101070007047704770B590F83C20012A2CD00124AD
:1010800080F83C40022280F83D2003685A689D6841
:1010900022F070060A6832435A60104B02689A4286
:1010A0000ED00F4B9A420BD0B2F1804F08D00D4BAF
:1010B0009A4205D00C4B9A4202D00C4B9A4204D172
:1010C000496825F080031943916080F83D40002174
:1010D00080F83C10084670BD022070BD002C014015
:1010E000003401400004004000080040000C0040B3
:1010F00010B5040003D094F83D0010B107E00120C2
:1011000010BD002084F83C00204600F01FF80220AB
:1011100084F83D00211D206801F048F8012084F882
:10112000460084F83E0084F83F0084F8400084F8CC
:10113000410084F8420084F8430084F8440084F8B5
:10114000450084F83D00002010BD000008B500688F
:101150000649884208D10648816941F400618161ED
:10116000806900F40060009008BD0000002C014080
:101170000010024090F83D10012901D00120704775
:10118000022180F83D100168CA6842F00102CA607D
:1011900000680E4988420ED00D4988420BD0B0F14C
:1011A000804F08D00B49884205D00B49884202D0B5
:1011B0000A49884204D1816801F00701062903D059
:1011C000016841F00101016000207047002C0140DE
:1011D000003401400004004000080040000C0040C2
:1011E00070B5044690F83C00012817D0012584F81A
:1011F0003C50022084F83D002068826822F077028B
:1012000022F47F4282600868502830D00DDC20280C
:101210004DD005DC98B310283BD148E0022070BDCA
:10122000302844D0402834D139E0602828D07028B4
:1012300006D0B0F5805F2CD0B0F5005F29D10AE070
:10124000CB68D1E90121206801F003F820688168AA
:1012500041F0770109E0CB68D1E90121206800F075
:10126000F8FF2068816841F48041816011E0CA681C
:101270004968206800F0FFFF5021206807E016E071
:10128000CA684968206801F03DF86021206800F0D4
:10129000EAFF84F83D50002084F83C0070BDCA6825
:1012A0004968206800F0E7FF40212068EFE72268E6
:1012B00001461046EBE700F075BA2DE9F04105460E
:1012C00090F83C000C46012836D0012085F83C00FF
:1012D0008AB3042A42D02868082A51D0D4E90023CE
:1012E000E168066A26F480560662C669076A26F433
:1012F000407646EA03234FF6FF7606EA013123F4EF
:10130000704319434FF4005627F4005306EA0232A3
:101310001A43C16102622868C16921F44061C16158
:101320002868C169A26841EA0221C161002085F8EC
:101330003C00BDE8F08101E00220FAE7D4E90012A8
:10134000E368286800F0A8FF2868816921F00C0193
:10135000816128688169A26811430FE0D4E9001215
:10136000E368286800F0E0FF2868816921F44061A3
:10137000816128688169A26841EA02218161D5E71B
:10138000D4E90027267B016A21F480710162C169DA
:10139000036A21F00301394321F0F00731074FF4CC
:1013A000007647EA116123F4007306EA02221A4329
:1013B000C16102622868C16921F00C01C16128681D
:1013C000C169A2681143B0E710B5040003D094F8D6
:1013D0003D0010B107E0012010BD002084F83C0062
:1013E000204600F01FF8022084F83D00211D2068EF
:1013F00000F0DCFE012084F8460084F83E0084F80A
:101400003F0084F8400084F8410084F8420084F8EA
:10141000430084F8440084F8450084F83D0000202F
:1014200010BD000000B585B000210091019102912E
:1014300003910068B0F1804F1ED11048C16941F09E
:101440000101C161C16901F001010491816941F0AB
:10145000040181618069694600F004000490012064
:1014600000900748FFF756F8002211461C20FFF7AE
:101470004DFB1C20FFF73CFB05B000BD00100240F7
:101480000008014010B5044651B104290DD00829C7
:1014900010D094F8410094F84520012811D10EE0B5
:1014A00094F83E0094F84220F7E794F83F0094F84F
:1014B0004320F2E794F8400094F84420EDE7012A35
:1014C00001D0012010BD022051B1042911D00829FA
:1014D00018D084F8410084F845000C291BD13CE069
:1014E00084F83E0084F842002068C26842F002029C
:1014F00010E084F83F0084F843002068C26842F09E
:10150000040207E084F8400084F844002068C268C0
:1015100042F00802C2600122206800F08DFE1149ED
:10152000206888420ED0104988420BD0B0F1804F1D
:1015300008D00E49884205D00D49884202D00D4995
:10154000884204D1816801F00701062903D00168AF
:1015500041F001010160002010BD2068C26842F026
:101560001002D7E7002C0140003401400004004085
:1015700000080040000C004070B504460068016996
:101580004FF00005C943890715D4C168C9438907CD
:1015900011D4E91E0161012020772068806980074D
:1015A000204602D0FFF787FE04E000F098F82046BE
:1015B00000F096F8257720680169C943490717D4D8
:1015C000C168C943490713D46FF0040101610220C7
:1015D00020772068806910F4407F204602D0FFF712
:1015E0006AFE04E000F07BF8204600F079F82577E9
:1015F00020680169C943090716D4C168C9430907AE
:1016000012D46FF008010161042020772068C069BE
:101610008007204602D0FFF74EFE04E000F05FF89E
:10162000204600F05DF8257720680169C943C906A6
:1016300017D4C168C943C90613D46FF01001016102
:10164000082020772068C06910F4407F204602D02F
:10165000FFF731FE04E000F042F8204600F040F8C9
:10166000257720680169C943C90708D1C168C94302
:10167000C90704D1891E0161204600F032F82068B4
:101680000169C943090609D4C168C943090605D4DB
:101690006FF0800101612046FFF7EAFC20680169D4
:1016A000C943490609D4C168C943490605D46FF046
:1016B00040010161204600F02BF820680169C94310
:1016C00089060BD4C168C943890607D46FF020018D
:1016D00001612046BDE87040FFF7CBBC70BD70478C
:1016E000704700F0F1B80246002041B1042909D04A
:1016F00008290AD00C2901D11068006C70471068C5
:10170000406B70471068806B70471068C06B704703
:101710007047FEE770B5124A054640685060E868B9
:1017200090600C002868C2E9070406D0042C06D09B
:10173000082C06D00C2C06D008E0012004E0022082
:1017400002E0042000E0082082F824002846FFF789
:1017500011FD21462846BDE87040FFF793BE00000A
:10176000B40200200348044982698A4200DB816197
:1017700080697047B40200200000FA4310B5084C9D
:10178000012220212046FEF7C6FF0A2000F0E8FDD6
:1017900020460022BDE810402021FEF7BCBF00001B
:1017A0000008014070B5444D04460068E96988426C
:1017B0003AD1207F95F82410884235D129462878DF
:1017C000096A002688B301282ED12046FFF78BFF37
:1017D0006988AA6801FB02002861E968401A68610B
:1017E00001F017F90022354B00F0A4FF0022344B22
:1017F00001F022F9721E01F05AFD0022314B01F076
:101800001BF900F0B5FEA8612E70286A88B3042881
:101810004AD008282068016A4BD021F400510162A7
:10182000286A2068016A016270BDFFE72046FFF761
:101830005AFFE860286AB8B104281BD0082820683D
:10184000016A1CD021F400510162286AD0B1042839
:101850001DD008282068016A1ED041F400510162A1
:101860006E8001202870DFE72068016A21F00A01FC
:10187000EAE714E02068016A21F0A001E4E721F41E
:101880000071E1E72068016A41F00201E7E72068A2
:10189000016A41F02001E2E741F40071DFE72068CE
:1018A000016A21F00A01BAE72068016A21F0A0016B
:1018B000B5E721F40071B2E7B402002080842E4124
:1018C000004075400000594001680448C2699142D7
:1018D00002D14188491C418070470000B4020020B9
:1018E00001684A69D24352050FD46FF480624A619D
:1018F000002140F8301F202242738173026942F0B8
:10190000040202610173012070470020704700004B
:101910002DE9F843044600680D46DDE908970168A3
:101920009846164641F4807101604B4600224FF004
:1019300001112046009700F065F848B12068006862
:10194000C00502D54FF4007020640320BDE8F88381
:10195000216805F0FE0008613B464A4615492046CD
:1019600000F084F888B920684169806900903A469F
:101970004946204600F0C5F848B1206C042804D13F
:101980002068016841F4007101600120DEE7F5B2D2
:10199000B8F1010F09D02168300A08613A4649467A
:1019A000204600F0AEF80028E7D12068056100204D
:1019B000CCE700000200010070B516460D46044653
:1019C0000DE02046FFF78CFF08B1012070BD681CB8
:1019D00005D0FEF7A5FE801BA84207D835B12068C8
:1019E0004069C0434007ECD4002070BD002044F89B
:1019F000300F20216173A073216941F02001216122
:101A00002073E2E72DE9F0471E4690460D46044656
:101A1000C1F30747DDF8209008E0701C06D0FEF700
:101A20007FFEA0EB0900B0420FD876B12068012FED
:101A300018D0806925EA00000004000C14D00021B1
:101A40004145EAD00020BDE8F087002044F8300F7F
:101A500020216173A073216941F02001216120736D
:101A60000120F0E74069E5E70121E9E72DE9F047CA
:101A70009A4691460E46044600254FF02008C1F3D1
:101A8000074725E020684069C043400514D420681A
:101A9000016841F40071016021686FF48060486161
:101AA000256384F83D8084F83E50206C40F00400AB
:101AB000206484F83C501FE0B9F1FF3F08D0FEF7E6
:101AC0002FFEA0EB0A0149450CD8B9F1000F09D04F
:101AD0002068012F13D0806926EA00000004000C62
:101AE0000BD0CFE744F8305F84F80D80A5732069F0
:101AF00040F02000206125730120BDE8F087406997
:101B0000EAE770B516460D4604460DE02046FFF79D
:101B1000E7FE08B1012070BD681C05D0FEF700FE8D
:101B2000801BA84207D835B120684069C043000631
:101B3000ECD4002070BD002044F8300F20216173E8
:101B4000A073216941F0200121612073E2E70000C8
:101B50002DE9F04385B000241D48009401940294BF
:101B60000394816941F004018161816901F00401FC
:101B70000491816941F0080181618069DFF8548036
:101B800000F008000490002220214046FEF7C3FD2B
:101B9000DFF844904FF48177002239464846FEF73B
:101BA000BAFD202001250226CDE90005CDE9024637
:101BB00069464046FEF7AEFC00970396CDE9015416
:101BC00069464846FEF7A6FC05B0BDE8F083000074
:101BD0000010024000080140000C01400D4810B503
:101BE0000B4901600C49416000214FF48042816043
:101BF000C0E9031241618161C1610162FEF796FD96
:101C0000002803D0BDE81040FEF76FBC10BD0000F7
:101C100000540040D0010020A086010010B586B01D
:101C200000241748009401940294039404941349E7
:101C3000059401604721C0E901144FF6FF71C0E926
:101C4000031444618461FFF753FA08B1FEF74DFCB9
:101C50004FF48050009069460948FFF7C1FA08B177
:101C6000FEF743FC049404A905480594FFF702FA23
:101C7000002801D0FEF739FC06B010BD002C014051
:101C80002402002010B586B000241848059404945E
:101C90000094019402944FF0804103940160472125
:101CA000C0E901144FF6FF71C0E903148461FFF726
:101CB0008BFB08B1FEF719FC049404A90B480594AA
:101CC000FFF7D8F908B1FEF710FC0120CDE900407C
:101CD00002940022694605480394FFF7EEFA0028B3
:101CE00001D0FEF702FC06B010BD00006C0200201F
:101CF000FEE7FEE7002000F001B8000070B50646E0
:101D00005FF0000404F1B000C0B200F049FB002015
:101D100000F046FB102000F043FB0025304600F0A9
:101D200051FB6D1CEDB2802DF8D3641CE4B2082C7D
:101D3000E8D370BD10B56420FEF7DAFBAE2000F0EA
:101D40002FFB202000F02CFB102000F029FBB020FE
:101D500000F026FBC82000F023FB002000F020FB51
:101D6000102000F01DFB402000F01AFB812000F045
:101D700017FBFF2000F014FBA12000F011FBA620B0
:101D800000F00EFBA82000F00BFB3F2000F008FB4A
:101D9000A42000F005FBD32000F002FB002000F09F
:101DA000FFFAD52000F0FCFAF02000F0F9FAD92073
:101DB00000F0F6FA222000F0F3FADA2000F0F0FA50
:101DC000122000F0EDFADB2000F0EAFA202000F00B
:101DD000E7FA8D2000F0E4FA142000F0E1FABDE803
:101DE0001040AF2000F0DCBA10B50446B031C8B2E4
:101DF00000F0D6FA102040EA141000F0D1FA04F0F6
:101E00000F00BDE8104040F0010000F0C9BA00002A
:101E10002DE9F0410F46804600255401FFF7E4FF0D
:101E20000C4E305D00F0CEFA6D1CEDB2641C102D2E
:101E3000F7D37F1CF9B24046FFF7D6FF0025305D8F
:101E400000F0C0FA6D1CEDB2641C102DF7D3BDE894
:101E5000F0810000100000202DE9F0411D461646DB
:101E600088460746002409E0A019C2B207EB041017
:101E7000C0B24146FFF7CCFF641CE4B2AC42F3D3DE
:101E8000BDE8F0812DE9F041203A00240D4680465E
:101E9000D6B27F2803D900208D1C8046EDB2102BCE
:101EA00029460FD0FFF7A0FF164906EB460001EBCD
:101EB0004005285D00F086FA641CE4B2062CF8D3D5
:101EC000BDE8F081FFF790FF0F4F00BF04EB061055
:101ED000385C00F077FA641CE4B2082CF6D36D1C71
:101EE000E9B24046FFF780FF5FF0000404EB061004
:101EF0003844007A00F066FA641CE4B2082CF5D38A
:101F0000DEE70000523300087A3500082DE9F05F63
:101F10000026DDF828901D4692468B4680463446C2
:101F20004FEA590723E0281B401EC1B20A2000F0E7
:101F300017FBBAFBF0F00A21B0FBF1F201FB120033
:101F400026B9691E8C4201DA38B101263030C2B29E
:101F500007FB0480C0B24B4604E007FB0480C0B21C
:101F60004B4620225946FFF78DFF641CE4B2AC4279
:101F7000D9D3BDE8F09F00002DE9F0470025914638
:101F80008A460446012B22D0DFF8BC80022B24D1E4
:101F900055E02038C7B27E2C04D90AF10100002494
:101FA00000F0FF0A51462046FFF71EFF07EB4700EF
:101FB000002608EB4007B85D00F004FA761CF6B284
:101FC000062EF8D3A41D6D1CE4B2EDB201E0DFF8DB
:101FD0007C8019F805000028DBD1BDE8F0872038A7
:101FE000C7B2782C04D90AF10100002400F0FF0ADE
:101FF00051462046FFF7F8FE5FF0000606EB07119A
:1020000018F8010000F0DEF9761CF6B2082EF5D3C0
:102010000AF10100C1B22046FFF7E6FE5FF00006BC
:1020200006EB071101EB0800007A00F0CBF9761CF3
:10203000F6B2082EF4D308346D1CE4B2EDB219F8F0
:1020400005000028CBD1C8E77A35000852330008D4
:102050002DE9FF5F05461E46DDF83880029800F046
:1020600061FF81460F9800244FF00A0A470825E0D7
:10207000301B401EC1B20A2000F072FAB9FBF0F129
:10208000B1FBFAF20AFB1210BBF1000F05D1711E71
:102090008C4202DA40B14FF0010B3030C2B207FB84
:1020A0000450C0B20F9B04E007FB04500F9BC0B26A
:1020B00020220199FFF7E6FE641CE4B2B442D7D3B4
:1020C00007FB0650C0B22E220F9B0199FFF7DAFEE4
:1020D00041460A2000F044FA00F058FF0446484602
:1020E00000F03CFF029901F031F8214600F062FF58
:1020F00000F018FF002481466D1D18E0A8EB0400D5
:10210000401EC1B20A2000F02BFAB9FBF0F1B1FB7E
:10211000FAF20AFB1211A01907FB00503031CAB2C3
:10212000C0B20F9B0199FFF7ADFE641CE4B24445B9
:10213000E4D3BDE8FF9F70477047FEF781BC30B520
:102140008FB028216846FEF781F814210AA8FEF70F
:102150007DF801210804CDE9001000240294022535
:102160000491CDE907504FF4E01009906846FEF75E
:10217000DBFD08B172B6FEE70F20CDE90A054FF48A
:102180008060CDE90C4002210AA80E94FEF7F0FC15
:10219000002801D072B6FEE70FB030BD70470000D6
:1021A0000148FFF7E9B900006C020020F0B50268B1
:1021B0001C4B1D4D1D4E1E4F1E4C4FF0804C984227
:1021C00009D0A04207D0604505D0A84203D0B04254
:1021D00001D0B84204D122F0700E4A6842EA0E02E1
:1021E000984209D0A04207D0604505D0A84203D04C
:1021F000B04201D0B84203D122F44075CA682A43E4
:102200004D6922F080022A4302608A68C2620A682D
:102210008262984201D0A04201D109690163012183
:102220004161F0BD002C0140000400400008004066
:10223000000C00400034014010B501F01F030121E3
:10224000046A99408C430462016A9A401143016216
:1022500010BD10B5846842EA032224F47F440A4387
:102260002243826010BD826822F070020A4342F06D
:1022700007018160704710B5036A046A24F0010405
:102280000462846924F0F00444EA021423F00A0290
:102290000A438461026210BD70B5046A24F001042F
:1022A00004628469056A124EB0420ED0114EB042EB
:1022B0000BD0B0F1804F08D00F4EB04205D00F4E7A
:1022C000B04202D00E4EB04203D124F003041443B6
:1022D00001E044F001041A0724F0F00444EA126219
:1022E00025F00A0301F00A0119438261016270BD01
:1022F000002C014000340140000400400008004070
:10230000000C004010B5036A23F0100303628369D8
:10231000046A23F4704343EA023224F0A00343EA40
:1023200001118261016210BD30B5046A24F010040D
:1023300004628469056A24F4407444EA022222F4A7
:1023400070444FF6FF7202EA03322243A02425F0C4
:10235000A00304EA011119438261016230BD00004B
:102360000D4900220B685A620A68136843F00103A2
:10237000136009684A6A8242FCD3086A41F211126A
:10238000104207D1086A9210104203D1086820F069
:10239000010008607047000024020020FEE70000F2
:1023A00001B584B00121642204A88DE807000B4622
:1023B000002278210248FEF77DFA05B000BD00003A
:1023C000D001002001B584B00121642204A88DE869
:1023D00007000B46402278210248FEF76BFA05B051
:1023E00000BD0000D00100200907090E002804DB11
:1023F00000F1E02080F80014704700F00F0000F1B9
:10240000E02080F8141D704770B5002205231146A6
:102410001046FFF721FDFDF7D7FF104C104E4FF48B
:102420008075A04207DA0022012311465A20FFF7E7
:1024300013FD01220AE0FDF7C7FFA0420CDB0123D8
:102440001A4600215A20FFF707FD00222946304690
:10245000BDE87040FEF75FB970BD0000000020418C
:10246000000C014070B500F0BDFA134A134B00F0A8
:10247000E3FA4FF03332124B00F0ACF800F078F88A
:1024800000F0C2FC0F4D06460C46686900F0C1FA28
:1024900000220D4B00F04EF93246234600F0CCFAF4
:1024A0004FF0FF3200F003FF0022084B00F0C4FAA7
:1024B00000F05EF8A86170BD068195438B6CE33F28
:1024C00033B77440B402002080842E41000059408C
:1024D0001CB5FEF7BDFAFFF732FEFFF739FBFFF739
:1024E0007DFBFFF79BFBFFF7CDFBFFF723FCFFF71F
:1024F00001FC4FF47A70FDF7FBFF00211548FFF750
:1025000009F9FFF73BF902245FF01005FDF702FF20
:10251000FFF734F90323082204210020FFF79CFC75
:1025200002230DA204213020FFF726FDFFF71AF940
:102530000246032304213720CDE90045FFF788FD3B
:10254000022306A204216420FFF716FDFFF75CFFBB
:10255000DCE700006C0200203A000000636D000020
:102560000246012000E05043491EC9B2FBD2704729
:1025700021F00042A2F16052B2F5801F01F0004349
:1025800028BFD2F17F6C0BD95FEA001C43EAC2027C
:1025900042EB507018BF704728BF20F00100704711
:1025A000B2F5801FBCBF184670474FEA410C1CF5BE
:1025B000001F02D2084600F0C4BD70B500F0E6FA74
:1025C00000000089FFF7F6BF4FF00040A0F5800043
:1025D0007047000010B591EA030F48BF83F0004335
:1025E00000F13083841A71EB030C05D2121943EB0E
:1025F0000C03001B61EB0C01DFF824E14FEA1154DE
:10260000A4EB135C1EEA430F18BF9EEA445F73D02D
:1026100023EA0E03DCF1200E21EA045143F4801377
:1026200032D322FA0CFE10EB0E0023FA0CFE41EB23
:102630000E01CCF1200E03FA0EFE10EB0E0051F14C
:102640000001B1F5801FCCF1200E32D201EB045114
:1026500012FA0EF2BDE8104058BF7047401C38BF58
:102660005FEA420218BF7047002814BF20F0010043
:1026700041F100014FEA410313F5001F38BF7047D5
:10268000A1F1C04100F0D0BA012A43EB0302ACF142
:10269000200CDCF11F0E32BF4FF0000E23FA0CF3BA
:1026A00010EB030041EB0451B4EB115FD0D0A1EB70
:1026B000045101F5801149085FEA300001EB045133
:1026C0000ED350F1000038BF12FA0EFE08D1BDE85B
:1026D0001040C9E7401C38BF5FEA4202CAD1C3E7D5
:1026E000BDE810404FEA410313F5001F38BF7047A3
:1026F000A1F1C04100F098BA9EEA445F08D011EA07
:102700005E0FBDE8104004BF01F00041002070479B
:10271000BDE8104070B500F039FA00BF64FBBE3E62
:102720000000E0FF02494FF0000000F08EBD00BF46
:102730000000F87F2DE9C04130B4DFF8A0C23CEAC8
:10274000111418BF3CEA131400F0EC8081EA030571
:102750001CEA111444EAD57418BF1CEA131500F0E2
:10276000C780A4EB05044FF0004545EAC12145EAC6
:10277000C32341EA505143EA525304F17F74994212
:1027800004F500344FEAC0204FEAC22208BF90424D
:1027900000F09C804FEA13650FF24016765D4FEA19
:1027A000134506FB05F7C7F1807706FB07F74FEAED
:1027B000D737A7FB03687642C8F58038A7FB06CE5B
:1027C00038BFA8F1010807FB08E64FF0000EA6FB92
:1027D000028CE6FB03CEDCF1000CCEF1004E38BFDC
:1027E000AEF1010EA6FB0C584FF000074FF00005AC
:1027F000E6FB0E87A1FB08C6A0FB07CE16EB0E0674
:1028000045F10005E1FB076515F1E04E7EBFA4F53B
:1028100080345FEA46066D4116F1800745F10005F8
:102820004FEA17274FEA066647EA0567A6F1DE4634
:10283000B6F1805F4FEA15251FD9384624F0010C08
:1028400005EBC471BCF1FE6F01EB0C1102D8F0BCBA
:10285000BDE8008124425CBF01F5801E9EEAC47F72
:1028600002D4F0BCBDE80081244238D4F0BCA1F110
:10287000C041BDE8004100F0D7B94FEAD22242EA98
:1028800043524FEAD323A7FB02864FEAD02040EA07
:10289000415007FB03661EEA0E0F4FEAD12105FBEC
:1028A000026658BFA6EB0056B6EB00564FEA520E32
:1028B0004EEAC37E18EB0E0E56EB530EBDD518EB49
:1028C00002085E417F1C55F10005B6E74FF4801504
:1028D0004FF000074FF000064FF00008ADE7F0BCE6
:1028E0004FF0000001F1C04101F00041BDE800815E
:1028F00011EA0C1F0CEA131500D00CE013EA0C1FB0
:1029000000F025804FF00000F0BC81EA030101F0E7
:102910000041BDE80081F0BCBDE8004181EA03014F
:1029200000F082B9F0BCBDE8004170B500F02EF9AE
:10293000097EFC3E00F007B881EA03014FF0000079
:1029400001F00041704781EA030100F06DB9F0BC6D
:10295000BDE800414FF0000021497047FFFDFBF941
:10296000F7F5F4F2F0EEEDEBE9E8E6E4E3E1E0DEC2
:10297000DDDBDAD8D7D5D4D3D1D0CFCDCCCBCAC834
:10298000C7C6C5C4C2C1C0BFBEBDBCBBBAB9B8B75B
:10299000B6B5B4B3B2B1B0AFAEADACABAAA9A8A84E
:1029A000A7A6A5A4A3A3A2A1A09F9F9E9D9C9C9B1C
:1029B0009A999998979796959594939392919190C7
:1029C0008F8F8E8E8D8C8C8B8B8A89898888878758
:1029D0008685858484838382828181800000FF07CD
:1029E0000000F87F10F0004248BF4042B0FA80F388
:1029F00010FA03F10AD0C3F11D0303F580634FEA17
:102A0000415002EB035202EBD12170474FF000001E
:102A10007047B0FA80F310FA03F10AD0C3F11D0336
:102A200003F580634FEA41504FEA035202EBD12194
:102A300070474FF000007047DFF848C170B51CEADE
:102A4000111E1EBF1CEA13159EEA0C0F95EA0C0F0F
:102A500000F06F8081EA030423EA4C134EEAD47E2F
:102A600021EA4C1141F4801143F48013AE44A1FBE0
:102A7000024CA0FB0365AEF17F7E361955EB0C05C9
:102A8000A1FB034C4CF10003A0FB021C16EB0C064F
:102A9000654153F10003094218BF46F0010613F4E3
:102AA000007F0BD14FEA03314FEA0530340341EA8E
:102AB000155140EA16506FF003020AE04FEAC321B5
:102AC0004FEAC520F40241EA555140EA56506FF0F2
:102AD000020202EB2E4201EB025585EACE710AD0CA
:102AE0005FEA440C18BF24F0004450F1000041F1AB
:102AF000000120EAD47040F2FE7C624500D270BD35
:102B0000A84214BF4FF080444FF04044002E08BF4D
:102B10000024BEF1806FA8BFA1F1C041BDE87040A4
:102B200080F282804FF0000001F1C04101F00041CD
:102B300070479EEA0C0F0CEA131518BF95EA0C0FAC
:102B400006D04FF0000081EA030E0EF0004170BD88
:102B500000F01CF88900013E00F007B800F009B849
:102B60004FEA430C5FEA5C5C08D081EA030100F0A5
:102B70005BB84FEA410C5FEA5C5CF6D14FF00000B5
:102B8000014970470000FF070000F87F0EF1020EB8
:102B90002EF0030E5EF8046B364205D4012A43EB97
:102BA000030515F5001F12D8012841EB010C1CF597
:102BB000001F0CD80ED14FEAD17C15F5001F0CEB8D
:102BC0004C0C0CF1020C08BF4CEBD37C04E04FF032
:102BD000080C01E04FEAD37C0CEB4C0526FA05F615
:102BE00006F00706B6F1040C06D20EEB860CBDE823
:102BF00070404CF0010C6047DFE80CF0090B02025A
:102C00004FF000414FF00000A1F5002170BD1946C2
:102C10001046012851EB010418BFD4F5001484BFFD
:102C2000002001F0004170BD0808A0F500114FEA36
:102C30003101704710B591EA030F48BF83F000439C
:102C40003FF5D0AC841A71EB030C07D212198CF04B
:102C5000004C43EB0C03001B61EB0C01DFF8A4E11B
:102C60004FEA1154A4EB135C1EEA430F18BF9EEA0F
:102C7000445F00F0B08023EA6E03524221EA04511F
:102C8000C3EB6E0338BF5B1EDCF1200E25D322FAA6
:102C90000CFE10EB0E0043FA0CFE41EB0E01CCF1E2
:102CA000200E03FA0EFE10EB0E0051F10001CCF1E4
:102CB000200E29D412FA0EF201EB0451BDE81040A7
:102CC00058BF7047401C1CBFB2F1004F704700282E
:102CD0000CBF491C20F00100704712EB020E43EBC1
:102CE000030218BF4FF0010E4EEA4202ACF1200C75
:102CF000DCF11E0E54D943FA0CFE10EB0E0051F11C
:102D0000FF31CCF11E0ED5D50EF1010E12FA0EFEDA
:102D1000404141EB010101EB445C5FEA5C5C10D98E
:102D200010EBDE7001EB045138BFBEF1004FBDE87F
:102D3000104018BF704700280CBF491C20F001004C
:102D4000704730D24FEAD42C11F5001124F40064FE
:102D50001BD0B1FA81F20B3AA41AA41ED2F12003BF
:102D6000914030FA03F31943904001EBCC71002CF1
:102D700001EB0451BDE81040A8BF704701F1C0410C
:102D80004FF0000001F000417047B0FA80F310FAF4
:102D900003F100D110BDE41A173C4805C90AE4E765
:102DA00001EB045110BD491001EB0451BDE8104086
:102DB0004FEA300002E04FF0000170474A0008BFC0
:102DC0000042F8D0B2F5001F28BF704701F0004163
:102DD0004FF0000070479EEA445F07D011EA5E0F93
:102DE000BDE8104004BF002100207047BDE810403E
:102DF00070B5FFF7CBFE00BF40DFF63E83F0004129
:102E0000104670470000E0FF43004FEAD30C4FEA42
:102E10003C0C43401FBF40070CF1605113F0FE4FC4
:102E200070471CF0006F03D100200CF00041704788
:102E30000CF0004343EA507010B540EACC0000F0BB
:102E40003AF900BF000000924FEA0001FFF7ECBE24
:102E50004FF000414FF00000A1F500217047000045
:102E600090EA010F48BF81F0004100F18081421AD1
:102E70003CBF801A89184FEAD0524FF07F4C1CEAB1
:102E8000410FA2EBD15318BF9CEA026F00F03B80C8
:102E90004FF0004C4CEA00204CEA012121FA03FCDF
:102EA00010EB0C0C1ED202F1FF325FEA1C2040EB4B
:102EB000C25038BF70471CF07F0F4FEA400C18BF5C
:102EC000BCF17F4F38BF7047C3F12003994008BF62
:102ED00020F00100BCF17F4F38BF7047A0F1C04027
:102EE00000F02FB94FEA3C00000A40EBC25028BF67
:102EF0001CF0FF0F4FEA400CE6D018BFBCF17F4F2B
:102F000038BF7047EAE79CEA026F05D010EA5C0F11
:102F100008BF00F00040704710B500F0CCF800BFCB
:102F200064FBBE3E41000B0ED3F19E0208D950F463
:102F300000034FEA032323FA02F048BF40427047E0
:102F400010B500F0B8F800BF499224800020704707
:102F50006FF0004282EA20007047000010F000414C
:102F600048BF4042B0FA80F310FA03F2C3F19D0368
:102F70000BD051EAC35101EB1220530638BF704702
:102F800000F1010008BF20F001007047B0FA80F3A3
:102F900010FA03F2C3F19D030AD0D90501EB122008
:102FA000530638BF704700F1010008BF20F0010050
:102FB000704700004FF47F0C1CEAD0121EBF1CEAC1
:102FC000D11392EA0C0F93EA0C0F00F0478090EABD
:102FD000010F48BF42F480724FF0004C4CEA0020D1
:102FE0004CEA012102EB0302A0FB0113A2F500024F
:102FF000002918BF43F001035B0028BF4FEA3303E9
:1030000042EB22425FEA132C4CEBC2502EBFBCEBCA
:10301000436FB2F57C0F70474FEA036CBCF1004F71
:1030200008BF20F00100B2F57C0F38BF70470BD508
:1030300082F0FF0212F5803FC8BF704700F1C04028
:10304000D8BF00F00040704700F5000C5FEA4C0C60
:1030500048BF7047B0F1C04000F073B890EA010F6C
:103060000CEAD11348BF42F48072624538BF634511
:1030700004D280EA010000F00040704710B500F073
:103080001AF800BF8900013E00F007B800F009B847
:103090005FEA410C5FEA1C6C08D080EA010000F096
:1030A00050B85FEA400C5FEA1C6CF6D14FF000406C
:1030B000A0F5800070470EF1020E2EF0030E5EF8B0
:1030C000044B244204D44FEA4102B2F17F4F11D89D
:1030D0004FEA4003B3F17F4F0CD80ED14FEAD07CBA
:1030E000B2F17F4F0CEB4C0C0CF1020C08BF4CEB17
:1030F000D17C04E04FF0080C01E04FEAD17C0CEBEE
:103100004C0324FA03F404F00704B4F1040C06D2CF
:103110000EEB840CBDE810404CF0010C6047DFE87A
:103120000CF0070802024FF00040A0F5800010BD2F
:103130000846420018BFD2F1807288BF00F00040FC
:1031400010BDFF2141EAD050C005704780F000401B
:1031500090EA010F7FF58BAE81F0004100F007B8D7
:1031600090EA010F48BF81F000413FF580AE421A5E
:1031700004D882F00042A0EB020011444FEAD05282
:103180004FF07F4C1CEA410FA2EBD15318BF9CEAD1
:10319000026F4AD04FF0004C4CEA00204CEA01216B
:1031A00021FA03FCB0EB0C0C0FD412F0FE0F36D05A
:1031B0005FEA4C001DD5001240EBC25038BF70478B
:1031C0001CF03F0F18BF70470BE0A2F101025FEA4D
:1031D0001C2040EBC25038BF70471CF07F0F18BF57
:1031E0007047C3F12003994014BF401E20F0010036
:1031F000704780084FEA122308BF7047B0FA80FC7E
:10320000A2EB0C02CCF1280C60FA0CF093EA122F1E
:1032100004BF00EBC25070474FEAC3707047130AF7
:103220005FEADC1008BF7047F6E79CEA026F04D043
:1032300010EA5C0F08BF0020704710B5FFF73BFF96
:1032400040DFF63E81F0004070470CF00F03092B81
:1032500008BF082000F059800A2B0BD0082B18BF9C
:10326000704708BF1CF0400F0AD04FF000004FF02D
:10327000000170471CF0400F18BF4FF0004070472E
:103280001CF0100F08D020F0704300F07F4242EA9B
:10329000D3014FEA4370704700F0604021F07F4255
:1032A00042EA000201F07F4040EA727070474FF03E
:1032B000FF0C4CF4E06C1CEA11531CBF9CEA030C9D
:1032C0009445C2BFDA4201EB02517047002B0DD08A
:1032D000BCF1000F0FD0002A01F00041A4BF41F063
:1032E000E04141F07F614FF00000704701F0004184
:1032F0004FF00000704750EA01334FF09B0C18BFAD
:103300004CF0806C7FF40EAA70471CF4801F11D023
:103310001CF4E02F03D06FEACC31490070474FF026
:103320004050EFF3008222F0704242EA000282F342
:10333000008870474FF00000704700000000000058
:103340000000010203040607080900000000010252
:1033500003040000000000000000002F0000000037
:103360000700070000147F147F1400242A7F2A120C
:1033700000626408132300364955225000000503FB
:10338000000000001C224100000041221C0000142B
:10339000083E08140008083E0808000000A060006D
:1033A00000080808080800006060000000201008FD
:1033B0000402003E5149453E0000427F4000004269
:1033C00061514946002141454B31001814127F10CC
:1033D000002745454539003C4A49493000017109FB
:1033E000050300364949493600064949291E0000AF
:1033F0003636000000005636000000081422410056
:103400000014141414140000412214080002015185
:10341000090600324959513E007C1211127C007F8E
:1034200049494936003E41414122007F4141221C29
:10343000007F49494941007F09090901003E41498E
:10344000497A007F0808087F0000417F4100002082
:1034500040413F01007F08142241007F404040402E
:10346000007F020C027F007F0408107F003E414174
:10347000413E007F09090906003E4151215E007F5F
:10348000091929460046494949310001017F0101D6
:10349000003F4040403F001F2040201F003F403879
:1034A000403F0063140814630007087008070061B8
:1034B0005149454300007F41410000552A552A5596
:1034C000000041417F00000402010204004040402E
:1034D0004040000001020400002054545478007F52
:1034E0004844443800384444442000384444487F29
:1034F00000385454541800087E0901020018A4A48E
:10350000A47C007F080404780000447D4000004053
:1035100080847D00007F102844000000417F40002F
:10352000007C04180478007C0804047800384444C3
:10353000443800FC242424180018242418FC007C9F
:103540000804040800485454542000043F44402018
:10355000003C4040207C001C2040201C003C4030AF
:10356000403C004428102844001CA0A0A07C00443B
:1035700064544C441414141414140000000000008B
:1035800000000000000000000000000000F8000043
:103590000000000000333000000000100C06100C8A
:1035A0000600000000000000000040C07840C07825
:1035B0004000043F04043F040400007088FC08300D
:1035C0000000001820FF211E0000F008F000E018A5
:1035D000000000211C031E211E0000F0088870005E
:1035E00000001E2123241927211010160E000000B0
:1035F00000000000000000000000000000E01804CF
:103600000200000000071820400000020418E0003B
:1036100000000040201807000000404080F080407B
:1036200040000202010F01020200000000F0000051
:1036300000000101011F0101010000000000000065
:10364000000080B0700000000000000000000000DA
:103650000000000101010101010100000000000063
:10366000000000303000000000000000000080601A
:103670001804006018060100000000E0100808109F
:10368000E000000F102020100F00001010F80000C4
:1036900000000020203F202000000070080808885B
:1036A000700000302824222130000030088888482B
:1036B00030000018202020110E000000C02010F85B
:1036C000000000070424243F240000F8088888082C
:1036D00008000019212020110E0000E01088881831
:1036E0000000000F112020110E0000380808C83813
:1036F00008000000003F00000000007088080888F3
:103700007000001C222121221C0000E0100808107B
:10371000E0000000312222110F00000000C0C000B4
:1037200000000000003030000000000000800000B9
:1037300000000000806000000000000080402010B9
:1037400008000001020408102000404040404040B2
:103750004000040404040404040000081020408015
:10376000000000201008040201000070480808084A
:10377000F0000000003036010000C030C828E8101A
:10378000E0000718272423140B000000C038E000D5
:103790000000203C23020227382008F8888888701F
:1037A0000000203F202020110E00C030080808082B
:1037B0003800071820202010080008F80808081012
:1037C000E000203F202020100F0008F88888E8083B
:1037D0001000203F20202320180008F88888E808DF
:1037E0001000203F200003000000C0300808083807
:1037F000000007182020221E020008F80800000818
:10380000F808203F210101213F20000808F808089E
:1038100000000020203F2020000000000808F808D9
:103820000800C08080807F00000008F888C0281849
:103830000800203F20012638200008F8080000007A
:103840000000203F20202020300008F8F800F8F881
:103850000800203F003F003F200008F830C000086B
:10386000F808203F200007183F00E0100808081063
:10387000E0000F10202020100F0008F808080808AA
:10388000F000203F210101010000E01008080810AD
:10389000E0000F18242438504F0008F888888888E2
:1038A0007000203F2000030C3020007088080808BA
:1038B00038000038202121221C00180808F80808C8
:1038C00018000000203F2000000008F80800000851
:1038D000F808001F202020201F000878880000C85A
:1038E0003808000007380E010000F80800F800084A
:1038F000F800033C0700073C030008186880806854
:10390000180820302C03032C30200838C800C83891
:1039100008000000203F2000000010080808C838F8
:1039200008002038262120201800000000FE020296
:1039300002000000007F40404000000C30C000004A
:103940000000000000010638C00000020202FE0074
:103950000000004040407F0000000000040202021E
:103960000400000000000000000000000000000053
:10397000000080808080808080800002020400003F
:103980000000000000000000000000008080808037
:1039900000000019242222223F2008F80080800025
:1039A0000000003F112020110E00000000808080E8
:1039B0000000000E112020201100000000808088EF
:1039C000F800000E112020103F2000008080808031
:1039D0000000001F222222221300008080F088882D
:1039E00088180020203F2020000000008080808078
:1039F0008000006B94949493600008F800808080AD
:103A00000000203F210000203F2000809898000007
:103A100000000020203F2020000000000080989837
:103A2000000000C08080807F000008F800008080D7
:103A30008000203F24022D302000000808F80000FC
:103A400000000020203F20200000808080808080B7
:103A50008000203F20003F20003F80800080808049
:103A60000000203F210000203F2000008080808057
:103A70000000001F202020201F0080800080800088
:103A8000000080FFA12020110E0000000080808037
:103A90008000000E112020A0FF80808080008080A8
:103AA000800020203F2120000100000080808080D5
:103AB00080000033242424241900008080E08080CA
:103AC00000000000001F2020000080800000008017
:103AD0008000001F202020103F2080808000008078
:103AE000808000010E300806010080800080008088
:103AF00080800F300C030C300F000080800080802D
:103B000080000020312E0E31200080808000008057
:103B1000808080818E701806010000808080808007
:103B200080000021302C2221300000000000807C29
:103B3000020200000000003F404000000000FF00C3
:103B4000000000000000FF0000000002027C800076
:103B500000000040403F000000000006010102029A
:103B60000404000000000000000000008C3B00087E
:103B700000000020D00100006C010008C03C0008DB
:103B8000D001002070070000C80100083201821037
:103B90004324F44B7F4901427F280A8141211D21A2
:103BA0004181FF8901238181200E028282422212FB
:103BB000FA0622224242821301011EFC444444457B
:103BC000041AFC0E11101012EAAFAAEA0FFA0288CA
:103BD0008C5724548C841F0202EAAAAAAB02190152
:103BE00014EA020217101010FF10902008FE8282C3
:103BF0008292A29E1D0444827F84000913FF8043A9
:103C00002C102C4380C33636251060028C2BFE927C
:103C10000132FE180A04047E01407E42427E0234D4
:103C2000427E402809FC242424FC25262408120472
:103C3000101040308F80844C55252525554C8080B0
:103C4000802809060909E6F80C04020153041E2E17
:103C5000071F30204001232010180D4020F807F0E6
:103C6000A0904C5724A454313112FF400A1F809277
:103C70005249292412081C0202C23B29C01C82821C
:103C800002305C40407F04290111180D0808E82922
:103C90002E28E80808C80C0B062940250949897F09
:103CA0001C0F408006093F6059E118092422222296
:103CB00023222020501318073BFE420132FE000051
:0400000508000131BD
:00000001FF
